:100000003711000093050000130600001305801946
:10001000EF00800FB70141001303100023A461001B
:10002000130EA0001305201BEF00000E9305000027
:10003000930260001305A00AEF004046EF00C0578E
:10004000EF0080419302A00AE31655FE1305201B22
:10005000EF00800B6FF01FFE1305050393D54500DD
:100060009306050013850500EF00404D930505003C
:1000700013060000930260001305201CEF00C00867
:1000800013164600EF000050EF00003D130505FD7C
:10009000635CC501634A05003306C5009382F2FF25
:1000A000638602006FF0DFFD13564600130506005D
:1000B000EF00C04813060500B701410023ACB100B2
:1000C00023AEC10013031000B701410023A2610059
:1000D00013050001EF00804283A5010103A6410141
:1000E00023A201001305201DEF0000021385050067
:1000F000EF0080201305E01DEF000001130506004E
:10010000EF00C02B6FF0DFF11301C1FF23201100BE
:100110009303050003C5030063080500EF00C03327
:10012000938313006FF01FFF832001001301410030
:1001300067800000130181FF23201100232281002A
:10014000130405001355C4001375F500EF004003B8
:10015000135584001375F500EF0080021355440019
:100160001375F500EF00C0011375F400EF004001B6
:1001700083200100032441001301810067800000F7
:100180009302A00063465500130575036F00C02C51
:10019000130505036F00402C0A0D202D2D2D205531
:1001A00041525420414354495641202D2D2D200ABF
:1001B0000D000A0D20436F7264656E616461205802
:1001C0003A000A0D20436F7264656E6164612059C4
:1001D0003A000A0D20416E67756C6F3A20000A0DD7
:1001E0002056656C6F63696461643A2000411900B0
:1001F0000000726973637600010F000000057276DB
:100200003332693270300000930205001383050019
:100210001305000093030000130E000293931300D4
:1002200093DEF201B3E3D30193921200131515008C
:1002300063E66300B383634013651500130EFEFF8E
:10024000E31E0EFC9385030067800000130101FF8D
:100250002320110023228100232491002326210141
:100260001304050093040000635604009304100077
:1002700033048040130141FF13090000631A040096
:100280009302000323005100130910006F00C00205
:1002900063040402130504009305A000EFF0DFF6E9
:1002A0001304050093820503330321012300530047
:1002B000130919006FF0DFFD638604001305D002F7
:1002C000EF0080191309F9FF3303210103450300EF
:1002D000EF0080181309F9FFE35809FE1301C1006C
:1002E0008320010003244100832481000329C100ED
:1002F0001301010167800000130101FF2320110099
:100300002322810023249100232621011315350186
:10031000135535411304050093040000635604008F
:100320009304100033048040135934001374740094
:10033000638604001305D002EF00001213050900C4
:10034000EFF0DFF01305E002EF0000119302C0416F
:1003500013132400B382620003A402009305400635
:1003600013050400EFF05FEA93840500130505030D
:10037000EF00800E9305A00013850400EFF0DFE886
:100380001384050013050503EF00000D1305040396
:10039000EF00800C1305A000EF00000C1305D00047
:1003A000EF00800B8320010003244100832481009F
:1003B0000329C10013010101678000001301C1FF7F
:1003C000232011001315050113550541EFF01FE817
:1003D0001305A000EF0040081305D000EF00C00790
:1003E0008320010013014100678000001301C1FF59
:1003F000232011001315450113554541EFF01FE56A
:100400001305A000EF0040051305D000EF00C00465
:1004100083200100130141006780000000000000FC
:100420007D000000FA00000077010000F4010000E8
:1004300071020000EE0200006B0300004119000091
:1004400000726973637600010F0000000572763355
:100450003269327030000000130181FF2320510007
:1004600023226100B701400023A4A10093021000E1
:1004700023A851009302000023A8510093020020FA
:1004800003A3010133735300E31C03FE8322010025
:10049000032341001301810067800000130181FFE5
:1004A0002320510023226100B701430023A4A100AF
:1004B0009302100023A851009302000023A85100CA
:1004C0009302002003A3010133735300E31C03FED6
:1004D0008322010003234100130181006780000093
:1004E0004119000000726973637600010F0000007B
:1004F0000572763332693270300000001301C1FF9B
:100500002320510093021000B392A2009382F2FFC5
:10051000E39E02FE83220100130141006780000078
:100520004119000000726973637600010F0000003A
:10053000057276333269327030000000B701420034
:1005400023A2A1001305100023A4A10023A40100ED
:100550009302100003A3010133735300E30A03FE67
:1005600003A5C10067800000411900000072697393
:10057000637600010F000000057276333269327035
:10058000300000001301C1FF23205100B7014000DB
:1005900003A5010193720510E38C02FE9302200073
:1005A00023A8510003A581001375F50F83220100D4
:1005B00013014100678000001301C1FF2320510097
:1005C000B701430003A5010193720510E38C02FEFD
:1005D0009302200023A8510003A581001375F50F95
:1005E00083220100130141006780000041190000CF
:1005F00000726973637600010F00000005727633A4
:0606000032693270300087
:00000001FF
