:1000000037110000130EA000930EA002130FF00290
:10001000930F300213058012EF00400E930500008D
:100020009302600093954500EF008015130505FDD0
:100030006350C503634E0500B305B5001385050085
:10004000EF0040379382F2FF638802006FF09FFD5C
:100050001305050393D54500930605001385050098
:10006000EF00002C930505006388DE006306DF00C7
:100070006384DF006FF01FFA130600009302600034
:1000800013164600EF00C00F130505FD6350C503AE
:10009000634E05003306C50013050600EF008031EE
:1000A0009382F2FF638602006FF09FFD13564600B5
:1000B00013050600EF00C026130605001305901572
:1000C000EF00C00313850500930506006388E60171
:1000D000638AF601EF00000F6F004001EF0040134C
:1000E0006F00C00013850500EF000028EF004017E7
:1000F000EF00402CEF00401B6FF0DFF11301C1FF58
:10010000232011009303050003C5030063080500C5
:10011000EF00802E938313006FF01FFF83200100F8
:1001200013014100678000000A0D202D20456E74E8
:1001300065722074776F206F706572616E647320D2
:100140002D200A0D000A0D456E746572206F7065D2
:100150007261746F72200A0D000A0D526573756C1E
:1001600074203D200041190000007269736376001D
:10017000010F0000000572763332693270300000E2
:10018000B70141001303100023A2610023A2010064
:100190001303100083A3C100B3F36300E38A03FEDB
:1001A00003A5810067800000411900000072697397
:1001B000637600010F0000000572763332693270F9
:1001C00030000000B701430023A2A10023A4B10026
:1001D0001305100023A6A10023A60100930210001E
:1001E00003A3410133735300E30A03FE03A5010196
:1001F0006780000041190000007269736376000196
:100200000F00000005727633326932703000000052
:10021000B701440023A2A10023A4B10013051000DC
:1002200023A6A10023A601009302100003A38101CD
:1002300033735300E30A03FE03A5010183A54101C3
:100240006780000041190000007269736376000145
:100250000F00000005727633326932703000000002
:10026000B701460023A2A1001305100023A4A1009A
:1002700023A401009302100003A301013373530070
:10028000E30A03FE03A5C1006780000041190000D6
:1002900000726973637600010F0000000572763307
:1002A0003269327030000000130141FF2320110039
:1002B000232251002324C101130E000893050500D9
:1002C00093D2C50193F2F2009382020313850200D8
:1002D000EF00801293954500135E1E00E3120EFEA0
:1002E0001305A000EF0040111305D000EF00C0106F
:1002F0008320010083224100032E81001301C100ED
:100300006780000041190000007269736376000184
:100310000F00000005727633326932703000000041
:10032000B701420023A2A1001305100023A4A100DD
:1003300023A401009302100003A3010133735300AF
:10034000E30A03FE03A5C100678000004119000015
:1003500000726973637600010F0000000572763346
:100360003269327030000000B701450023A2A100BD
:100370001305100023A4A10023A401009302100080
:1003800003A3410133735300E30A03FE03A5C10035
:1003900083A50101678000004119000000726973A4
:1003A000637600010F000000057276333269327007
:1003B00030000000B701470023A2A1001303100082
:1003C00023A4610023A401001303100083A3C10030
:1003D000B3F36300E38A03FE678000004119000065
:1003E00000726973637600010F00000005727633B6
:1003F0003269327030000000130181FF2320510068
:1004000023226100B701400023A4A1009302100041
:1004100023A851009302000023A85100930200205A
:1004200003A3010133735300E31C03FE8322010085
:10043000032341001301810067800000411900007F
:1004400000726973637600010F0000000572763355
:1004500032693270300000001301C1FF23205100C7
:10046000B701400003A5010193720510E38C02FE61
:100470009302200023A8510003A581001375F50FF6
:100480008322010013014100678000004119000030
:1004900000726973637600010F0000000572763305
:1004A00032693270300000001301C1FF2320510077
:1004B00093021000B392A2009382F2FFE39E02FE29
:1004C00083220100130141006780000041190000F0
:1004D00000726973637600010F00000005727633C5
:0604E000326932703000A9
:00000001FF
